:020000040800F2
:10000000C0070020690400083F0200084102000800
:1000100045020008490200084D02000800000000E7
:100020000000000000000000000000005102000875
:1000300053020008000000005502000857020008A3
:100040008304000883040008830400088304000874
:100050008304000883040008830400088304000864
:100060008304000883040008830400088304000854
:100070006327000883040008830400088304000841
:100080008304000883040008830400088304000834
:100090008304000883040008830400088304000824
:1000A0008304000883040008830400088304000814
:1000B0008304000883040008830400088304000804
:1000C00083040008830400088304000883040008F4
:1000D00083040008DB24000883040008830400086C
:1000E00083040008830400088304000883040008D4
:1000F00083040008830400088304000883040008C4
:1001000083040008830400088304000883040008B3
:1001100083040008830400088304000883040008A3
:100120008304000883040008830400088304000893
:100130008304000883040008830400088304000883
:100140008304000883040008830400088304000873
:100150008304000883040008830400088304000863
:100160008304000883040008830400088304000853
:100170008304000883040008830400088304000843
:10018000830400088304000800F002F800F03CF843
:100190000AA090E8000C82448344AAF10107DA45E2
:1001A00001D100F031F8AFF2090EBAE80F0013F0F8
:1001B000010F18BFFB1A43F0010318473C31000040
:1001C0005C310000103A24BF78C878C1FAD85207D1
:1001D00024BF30C830C144BF04680C6070470000C1
:1001E0000023002400250026103A28BF78C1FBD840
:1001F000520728BF30C148BF0B6070471FB503F0DE
:1002000075F81FBD10B510BD02F041FC1146FFF797
:10021000F5FF00F008F802F05FFC03B4FFF7F2FF0F
:1002200003BC02F0FBF80A2002F076F802F09AF91B
:10023000022000F039F902F009FA00BFFEE770472A
:1002400000BFFEE700BFFEE700BFFEE700BFFEE71E
:1002500070477047704770470CB5002001900090C0
:100260007648006840F480307449086000BF7348E5
:10027000006800F4003000900198401C0190009844
:1002800018B90198B0F5A04FF1D16C48006800F49E
:10029000003010B10120009001E000200090009893
:1002A000012846D165484030006840F080506349DD
:1002B000403108606248006840F44040604908608E
:1002C0005E48083000685D490831086008460068EB
:1002D00040F4004008600846006840F4A050086000
:1002E0005848091F0860081F006840F08070091F07
:1002F000086000BF5148006800F000700028F9D085
:1003000040F20570504908604C480830006820F001
:1003100003004A49083108600846006840F00200BE
:10032000086000BF45480830006800F00C0008284D
:10033000F8D10CBD10B54548006840F47000434941
:1003400008603E48006840F001003C490860002019
:100350003A4908310860394800683D490840374942
:1003600008603C48091D0860081F006820F48020D0
:10037000091F0860002031490C310860FFF76CFF4D
:100380004FF0006031498039086010BD70B5002021
:100390000022022300240221284D08352D6805F093
:1003A0000C0020B1042806D0082834D107E02A4DDB
:1003B0002A4E356033E02A4D284E35602FE01F4D20
:1003C0002D1D2D68C5F380541C4D2D1D2D6805F085
:1003D0003F0154B1224DB5FBF1F5184E361D36687C
:1003E000C6F3881605FB06F209E01B4DB5FBF1F5D7
:1003F000124E361D3668C6F3881605FB06F20F4D01
:100400002D1D2D68C5F301456D1C6B00B2FBF3F586
:10041000124E356003E0104D104E356000BF00BF36
:10042000064D08352D68C5F303150E4E705D0B4D56
:100430002D68C540094E356070BD0000003802408F
:100440000070004008544007003C024088ED00E086
:10045000FFFFF6FE103000240024F400000000200E
:1004600000127A000400002009488047094800472C
:10047000FEE7FEE7FEE7FEE7FEE7FEE7FEE7FEE754
:10048000FEE7FEE704480549054A064B70470000B1
:100490003503000889010008C0010020C0070020C2
:1004A000C0030020C003002032490143324A1160DA
:1004B000704770B5002100230F22C4781CB32E4C66
:1004C000246804F4E064C4F5E064C4F30721C1F1D6
:1004D0000404E3B20A4144789C40E1B284781440B9
:1004E00021430C07210E254C05786155047804F052
:1004F0001F050124AC4005786D11AD0005F1E02524
:10050000C5F8004109E0047804F01F050124AC405F
:100510001B4D0678761145F8264070BD194A0A40F1
:100520000243154B1B1F1A60704739B1124A121D46
:1005300012680243104B1B1D1A6006E00E4A121D82
:10054000126882430C4B1B1D1A607047042808D1A7
:100550004FF0E021096941F004014FF0E022116100
:1005600007E04FF0E021096921F004014FF0E0229B
:10057000116170470000FA050CED00E000E400E0B6
:1005800080E100E080FFFF1F016821F001010160B0
:100590000021016041608160C160016121214161F0
:1005A000DB49884204D13D21D94A103A91608CE060
:1005B000D7491831884205D14FF47461D44A103AB2
:1005C000916082E0D2493031884205D14FF47411F4
:1005D000CF4A103A916078E0CD494831884205D140
:1005E0004FF07461CA4A103A91606EE0C8496031B8
:1005F000884204D1C749C64A103AD16065E0C4496F
:100600007831884204D1C449C14A103AD1605CE0D3
:10061000BF499031884204D1C049BD4A103AD160E7
:1006200053E0BB49A831884205D14FF03D51B84A4B
:10063000103AD16049E0BA49884204D13D21B84A14
:10064000083A116041E0B6491831884205D14FF4AB
:100650007461B34A083A116037E0B14930318842D9
:1006600005D14FF47411AE4A083A11602DE0AC493F
:100670004831884205D14FF07461A94A083A1160A7
:1006800023E0A7496031884204D1A249A44A121F3D
:1006900011601AE0A2497831884204D19E49A04AEB
:1006A000121F116011E09E499031884204D19B498C
:1006B0009B4A121F116008E09949A831884204D171
:1006C0004FF03D51964A121F1160704710B500223D
:1006D0000268944B1A40CC680B6823434C6923434F
:1006E0008C692343CC6923430C6A23434C6A23431C
:1006F0008C6A23434C6B23438C6B23431A43026065
:10070000426922F00702D1E90B3423431A434261C4
:100710000B6943604B6883608B68C36010BD002128
:10072000016041608160C160016141618161C161BD
:10073000016241628162C16201634163816370470A
:1007400021B1026842F00102026003E0026822F077
:1007500001020260704721B1026842F40042026067
:1007600003E0026822F400420260704721B102688F
:1007700042F02002026003E0026822F020020260E0
:100780007047416070470146486880B2704722B1A7
:10079000036843F40023036003E0036823F40023A9
:1007A00003600161704721B1026842F48022026057
:1007B00003E0026822F48022026070470AB10161FE
:1007C00000E0C1607047014600200A6802F4002280
:1007D0000AB1012000E000207047014600200A68AD
:1007E00002F001020AB1012000E00020704701463A
:1007F00000204A6902F03800704730B503460A46C7
:1008000000200024464DAB4202D24149103901E09C
:100810004349103902F000550DB14C6800E00C68F6
:10082000414D2C4004EA02050DB1012000E00020FA
:1008300030BD02463A4B9A4202D23548103801E0A8
:100840003748103801F000531BB1374B0B40C360E1
:1008500002E0354B0B408360704710B501F0800318
:100860004BB122B1436943F08003436103E0436924
:1008700023F08003436180290BD02AB1036801F083
:100880001E042343036004E0036801F01E04A34335
:10089000036010BD70B50246002000240025204EE4
:1008A000B24202D21A4B103B01E01D4B103B1F4ECF
:1008B0000E4036B11E2606EAD124166806EA040563
:1008C00002E0566906F0800501F000560EB15C6842
:1008D00000E01C68144E344004EA010616B10DB164
:1008E000012000E0002070BD02460D4B9A4202D26A
:1008F0000748103801E00A48103801F000531BB1D6
:10090000094B0B40C36002E0074B0B40836070470C
:10091000106002403D000020400F002000003D20FC
:10092000106402403F801CF07D0F7D0F3C0F3C0F98
:1009300010B504469848844208D10121084600F0C9
:1009400086FB0021012000F082FB76E09348844280
:1009500008D10121022000F07AFB0021022000F0E2
:1009600076FB6AE08E48844208D10121042000F021
:100970006EFB0021042000F06AFB5EE0894884429F
:1009800008D10121082000F062FB0021082000F0BE
:100990005EFB52E08448844208D10121102000F01F
:1009A00056FB0021102000F052FB46E07F488442B5
:1009B00008D10121202000F04AFB0021202000F076
:1009C00046FB3AE07A48844208D10121402000F0F9
:1009D0003EFB0021402000F03AFB2EE075488442A7
:1009E00008D10121802000F032FB0021802000F09E
:1009F0002EFB22E07048844208D10121801500F0CE
:100A000026FB0021A01500F022FB16E06B48844273
:100A100008D10121401500F01AFB0021601500F0FB
:100A200016FB0AE06648844207D10121001500F058
:100A30000EFB0021201500F00AFB10BDF0B50A46A0
:100A400000210023002400BF3DE0012505FA01F349
:100A5000156805EA03049C4234D105684F0003265B
:100A6000BE40B543056015794E00B5400668354374
:100A700005601579012D02D01579022D16D18568F2
:100A80004F000326BE40B543856055794E00B54002
:100A9000866835438560456801268E40B5434560CC
:100AA000456896798E40B6B235434560C5684F00BB
:100AB0000326BE40B543C560D5794E00B540C66833
:100AC0003543C560491C1029BFD3F0BD4FF6FF71F7
:100AD00001600021017141718171C171704708B5D8
:100AE0004FF480320092009A0A430092009AC26149
:100AF000C161009AC261C2690092C269009208BDD8
:100B00000246002013690B400BB1012000E00020D9
:100B100070470146086980B2704702460020536959
:100B20000B400BB1012000E00020704701464869EE
:100B300080B2704701837047418370470AB10183D7
:100B400000E0418370474161704742694A40426119
:100B50007047F0B5002300244D07ED0E02FA05F3AF
:100B6000CE1000F1200555F826504E07F70E0F263F
:100B7000BE40B543CF1000F1200646F82750CE10F6
:100B800000F1200555F8265045EA0304CE1000F187
:100B9000200545F82640F0BD000002400004024058
:100BA00000080240000C0240001002400014024005
:100BB00000180240001C02400020024000240240B5
:100BC00000280240F948006840F00100F749086039
:100BD0000020F64908310860F4480068F4490840EC
:100BE000F2490860F348091D0860F348EF49843171
:100BF0000860F0481038091D0860EC48006820F4CF
:100C00008020EA4908600020E8490C310860E74983
:100C10008C31086070470021E44A921C1170114623
:100C20000870704710B501460022002300204A11C9
:100C3000012A02D1DD4C236808E0022A03D1DB4CF3
:100C40007034236802E0D94C7434236801F01F0229
:100C5000012494401C400CB1012000E0002010BD94
:100C600038B5002000900024002500BF3120FFF798
:100C7000D9FF05460098401C00900098B0F5A04FA1
:100C800001D0002DF2D03120FFF7CCFF08B10124B4
:100C900000E00024204638BD01460020C34A106809
:100CA00020F0F80040EAC10010607047C3490860B6
:100CB00070470021BD4A703211701170012802D0B6
:100CC00004280AD104E00121B84A7032117005E00D
:100CD0000521B64A7032117000E000BF00BF7047B6
:100CE000B7490860704770B5049C41EA8215012637
:100CF000C6EB530645EA0645054345EA0465AB4E97
:100D0000361D356070BDAD4908667047820142EA04
:100D10000172A64B84331A607047A84988667047F1
:100D200010B5830143EA016343EA02739F4C8834A0
:100D3000236010BDA14908677047A049C864704787
:100D400002460020994B0833186820F0EC6042EA14
:100D500001031843954B0833186070470246002082
:100D6000924B0833186820F0784042EA0103184398
:100D70008E4B083318607047014600208B4A0832BA
:100D8000106820F00300084310607047874808305F
:100D9000006800F00C00704701460020834A0832CA
:100DA000106820F0F00008431060704701460020F2
:100DB0007E4A0832106820F4E05008431060704703
:100DC00001460020794A0832106820F4604040EA69
:100DD000C10010607047F0B50021002200240225F8
:100DE00000260223714F08373F6807F00C0121B13C
:100DF000042905D0082937D105E0724F076036E095
:100E0000714F076033E0694F3F1D3F68C7F380565D
:100E1000664F3F1D3F6807F03F036EB16A4FB7FB57
:100E2000F3F7DFF888C10CF1040CDCF800C0CCF358
:100E3000881C07FB0CF40CE0624FB7FBF3F7DFF8FC
:100E40006CC10CF1040CDCF800C0CCF3881C07FB6F
:100E50000CF4564F3F1D3F68C7F301477F1C7D00D0
:100E6000B4FBF5F7076002E0564F076000BF00BF14
:100E70004E4F08373F6807F0F0010909534F7A5C7D
:100E80000768D7404760494F08373F6807F4E0518B
:100E9000890A4E4F7A5C4768D7408760434F0837CE
:100EA0003F6807F46041490B484F7A5C4768D74078
:100EB000C760F0BD002100F44072B2F5407F0AD156
:100EC0003A4A0832116821F4F811414A02401143AC
:100ED000364A08321160354A70321268C0F30B038B
:100EE0001A43324B70331A607047354944390860F1
:100EF0007047334940390860704736490860704789
:100F000001460020294A8C32106820F01F004A1E3A
:100F10001043264A8C321060704701460020234A55
:100F20008C32106820F4F8504A1E40EA02201F4A12
:100F30008C3210607047014600201C4A8C321068C9
:100F400020F4401008431060704701460020174A03
:100F50008C32106820F4400008431060704701464E
:100F60000020124A8C32106820F440300843106090
:100F7000704719490860704739B10C4A303212681D
:100F800002430A4B30331A6006E0084A30321268D6
:100F90008243064B30331A607047F9B1034A34324A
:100FA00012680243014B34331A601CE000380240DF
:100FB000FFFFF6EA10300024003000200000474216
:100FC000800E47420024F40000127A001400002032
:100FD000FFFCFF0F5C014742E01147428F4A126855
:100FE00082438E4B1A60704739B18C4A121D1268C9
:100FF00002438A4B1B1D1A6006E0884A121D1268C4
:101000008243864B1B1D1A60704739B1834A0C32EC
:1010100012680243814B0C331A6006E07F4A0C329F
:10102000126882437D4B0C331A60704739B17B4A9A
:10103000103212680243794B10331A6006E0774A87
:10104000103212688243754B10331A60704739B101
:10105000724A243A12680243704B243B1A6006E03D
:101060006E4A243A126882436C4B243B1A607047E4
:1010700039B16A4A203A12680243684B203B1A6031
:1010800006E0664A203A12688243644B203B1A60AD
:10109000704739B1614A1C3A126802435F4B1C3BEE
:1010A0001A6006E05D4A1C3A126882435B4B1C3BA7
:1010B0001A60704739B1594A143A12680243574BC3
:1010C000143B1A6006E0554A143A12688243534BA7
:1010D000143B1A60704739B1504A103A1268024303
:1010E0004E4B103B1A6006E04C4A103A126882439D
:1010F0004A4B103B1A60704739B1484A1C3212689B
:101100000243464B1C331A6006E0444A1C32126804
:101110008243424B1C331A60704739B13F4A203238
:10112000126802433D4B20331A6006E03B4A2032EE
:1011300012688243394B20331A60704739B1374AFD
:10114000243212680243354B24331A6006E0334AD6
:10115000243212688243314B24331A60704739B10C
:101160002E4A2C32126802432C4B2C331A6006E0B4
:101170002A4A2C3212688243284B2C331A6070475B
:1011800039B1264A303212680243244B30331A6098
:1011900006E0224A303212688243204B30331A6014
:1011A0007047012808D11D493C31096841F0080108
:1011B0001A4A3C32116007E018493C31096821F0B5
:1011C0000801164A3C321160704739B1134A273A78
:1011D00012780243114B273B1A7006E00F4A273A58
:1011E000127882430D4B273B1A7070470B484030F2
:1011F000006840F08070094940310860704701463E
:101200000020064A283A12680A400AB1012000E08C
:101210000020704701492639087070473438024071
:1012200010B50446FE48844208D101210846FFF764
:1012300052FF00210120FFF74EFF9DE0B4F1804FE7
:1012400008D101210846FFF735FF00210120FFF7F3
:1012500031FF91E0F348844208D101210220FFF7D9
:1012600029FF00210220FFF725FF85E0EE48844298
:1012700008D101210420FFF71DFF00210420FFF702
:1012800019FF79E0E948844208D101210820FFF7DD
:1012900011FF00210820FFF70DFF6DE0E4488442B4
:1012A00008D101211020FFF705FF00211020FFF7D2
:1012B00001FF61E0DF48844208D101212020FFF7CF
:1012C000F9FE00212020FFF7F5FE55E0DA488442C0
:1012D00008D101210220FFF7FEFE00210220FFF7C6
:1012E000FAFE49E0D548844209D101210804FFF7FC
:1012F000F2FE00214FF48030FFF7EDFE3CE0D048D5
:10130000844209D101214804FFF7E5FE00214FF492
:101310000030FFF7E0FE2FE0CA48844209D10121E6
:101320008804FFF7D8FE00214FF48020FFF7D3FE9A
:1013300022E0C548844208D101214020FFF7BAFECF
:1013400000214020FFF7B6FE16E0C048844208D1D5
:1013500001218020FFF7AEFE00218020FFF7AAFECA
:101360000AE0BB48844207D101218015FFF7A2FEA5
:101370000021A015FFF79EFE10BD00220288A84B99
:1013800098420ED0AC4B98420BD0B0F1804F08D0B1
:10139000A44B984205D0A44B984202D0A34B98424C
:1013A00004D14FF68F731A404B881A43A04B9842D2
:1013B00007D0A04B984204D04FF6FF431A400B8948
:1013C0001A4302804B68C3620B880385944B984292
:1013D00002D0994B984201D18B7A038601238382F4
:1013E00070474FF0FF314160002101800181418051
:1013F000817270470185828270470A460021018808
:101400004FF68F7319401143018070474162704756
:10141000C16270470146486A70470146088D7047AF
:1014200021B1028842F00202028004E002884FF6F5
:10143000FD731A400280704721B1028842F0040215
:10144000028004E002884FF6FB731A400280704766
:1014500021B1028842F08002028004E002884FF647
:101460007F731A400280704702884FF6F7731A4064
:10147000028002880A430280704702884FF6FF43C9
:101480001A40028002880A430280704721B1028814
:1014900042F00102028004E002884FF6FE731A4017
:1014A0000280704770B5002400220023058C4FF69F
:1014B000FE7635400584028C8388048B4FF68F7549
:1014C0002C40B51E2C400D882C43751E2A408D895A
:1014D0002A434D882A43524DA84202D0564DA84275
:1014E00013D14FF6F7752A40CD892A434FF6FB7585
:1014F0002A408D882A434FF6FF652B404FF6FF5553
:101500002B400D8A2B434D8A2B43838004838D68A7
:101510004563028470BD70B5002400220023058C51
:101520004FF6EF7635400584028C8388048B48F6AD
:10153000FF752C404FF6FF452C400D884FF6FF7687
:1015400006EA05252C434FF6DF752A408D8906EA09
:1015500005152A434D8806EA05152A43304DA84251
:1015600002D0354DA8421DD14FF67F752A40CD8956
:101570004FF6FF7606EA05152A434FF6BF752A4057
:101580008D8806EA05152A434FF6FF352B404FF2AA
:10159000FF752B400D8A06EA85052B434D8A06EA26
:1015A00085052B43838004838D688563028470BD29
:1015B00070B5002400220023058C4FF6FF663540ED
:1015C0000584028C8388848B4FF68F752C404FF6F0
:1015D000FC752C400D882C434FF6FF552A408D8911
:1015E0004FF6FF7606EA05252A434D8806EA0525CB
:1015F0002A430B4DA84202D00F4DA84238D14FF2DA
:10160000FF752A40CD894FF6FF7606EA05252A4365
:101610004FF6FF352A408D8806EA05252A4319E052
:10162000000001400004004000080040000C0040A1
:101630000010004000140040000401400040014040
:10164000004401400048014000180040001C0040D8
:10165000002000404EF6FF752B404DF6FF752B40E5
:101660000D8A06EA05152B434D8A06EA05152B431C
:10167000838084838D68C563028470BD70B5002249
:1016800000230024058C4EF6FF7635400584038C3C
:101690008488828B48F6FF752A404FF6FF452A4022
:1016A0000D884FF6FF7606EA05252A434DF6FF75AD
:1016B0002B408D8906EA05352B434D8806EA053512
:1016C0002B43FE4DA84202D0FD4DA84208D14BF657
:1016D000FF752C400D8A4FF6FF7606EA85152C43E0
:1016E000848082838D680564038470BD002101803D
:1016F0004180818081608181C18101824182704706
:1017000070B50346002000241846183001258D408E
:10171000ACB21D8CA5431D8409B108290AD100EB88
:10172000610005684FF68F76354005600568154302
:1017300005600FE00D1FC5F34E052844056848F607
:10174000FF763540056005684FF6FF7606EA02260B
:101750003543056070BD4163704781637047C16365
:101760007047016470470A460021018B4FF68F7362
:1017700019401143018370470A460021018B48F646
:10178000FF7319404FF6FF7303EA022319430183E5
:1017900070470A460021818B4FF68F731940114321
:1017A000818370470A460021818B48F6FF731940F8
:1017B0004FF6FF7303EA02231943818370470A46F9
:1017C0000021018B4FF6F7731940114301837047D5
:1017D0000A460021018B4FF2FF7319404FF6FF7349
:1017E00003EA02231943018370470A460021818BD3
:1017F0004FF6F77319401143818370470A46002161
:10180000818B4FF2FF7319404FF6FF7303EA0223F7
:101810001943818370470A460021018B4FF6FB7301
:1018200019401143018370470A460021018B4FF68E
:10183000FF3319404FF6FF7303EA02231943018374
:1018400070470A460021818B4FF6FB731940114304
:10185000818370470A460021818B4FF6FF33194080
:101860004FF6FF7303EA02231943818370470A4648
:101870000021018B4FF67F7319401143018370479C
:101880000A460021018BC1F30E014FF6FF7303EAF4
:1018900002231943018370470A460021818B4FF6CA
:1018A0007F7319401143818370470A460021818B61
:1018B000C1F30E014FF6FF7303EA0223194381833C
:1018C00070470A460021018C4FF6FD731940114301
:1018D000018470470A460021018C4FF6F7731940C6
:1018E0001143018470470A460021018C4FF6DF73D3
:1018F00019404FF6FF7303EA02131943018470473E
:101900000A460021018C4FF67F7319404FF6FF7392
:1019100003EA02131943018470470A460021018C2F
:101920004FF6FF5319404FF6FF7303EA02231943A2
:10193000018470470A460021018C4FF2FF73194061
:101940004FF6FF7303EA02231943018470470A46E6
:101950000021018C4DF6FF7319404FF6FF7303EA27
:10196000023319430184704730B5002301248C40B1
:10197000A3B2048C9C430484048C02FA01F5ADB23A
:101980002C43048430BD30B5002304248C40A3B222
:10199000048C9C430484048C02FA01F5ADB22C4300
:1019A000048430BD828B4FF2FF331A408283828BD6
:1019B0004FF6FF7303EA01231A4382837047F0B5A1
:1019C0000C461546002100220026078C4EF6FF7CAF
:1019D00007EA0C070784818B028C4FF6FF7707EA32
:1019E000043640F6FF4739404FF6FF7707EA0527F0
:1019F00039434FF6FF7707EA0337394345F6FF7758
:101A00003A4046F480573A4381830284F0BD828B8A
:101A10004FF6F3731A408283828B0A4382837047A6
:101A2000F0B50C461546002100220026078C4FF623
:101A3000FF6C07EA0C070784818B028C4FF6FF7757
:101A400007EA04264FF60C7739404FF6FF7707EA8E
:101A500003172F4339434FF2FF573A4046F480773C
:101A60003A4381830284F0BD028B4FF2FF331A4068
:101A70000283028B4FF6FF7303EA01231A430283AA
:101A80007047F0B50C461546002100220026078C51
:101A90004FF6EF7C07EA0C070784018B028C4FF6A8
:101AA000FF7707EA041640F6FF4739404FF6FF7705
:101AB00007EA033739434FF6FF7703E000000140A0
:101AC0000004014007EA052739434FF65F773A40A3
:101AD00046F010073A4301830284F0BD028B4FF6B3
:101AE000F3731A400283028B0A4302837047F0B5F6
:101AF0000C46154600210022068C4FF6FE773E402C
:101B00000684018B028C4FF60C7631407E1C06EA6F
:101B100003162E4331434FF6F576324044F001066A
:101B2000324301830284F0BD70B505460C4620881F
:101B300050B92389A28861882846FFF7D8FFE18839
:101B40002846FFF7CBFF25E0208804280AD1238907
:101B5000A28861882846FFF794FFE1882846FFF7AE
:101B600083FF17E0208808280AD12389A28861888A
:101B70002846FFF755FFE1882846FFF748FF09E0B0
:101B80002389A28861882846FFF719FFE188284643
:101B9000FFF708FF70BD0021018041800121818095
:101BA0000021C180018170472DE9F04105460C46B6
:101BB00000260127608808B9022600E00026A088D8
:101BC000012801D1022700E001272088A0B923893C
:101BD000A28861882846FFF78AFFE1882846FFF738
:101BE0007DFF23893A4631462846FFF74AFFE188C0
:101BF0002846FFF739FF13E02389A2886188284629
:101C0000FFF73FFFE1882846FFF72EFF23893A467A
:101C100031462846FFF76BFFE1882846FFF75EFF55
:101C2000BDE8F0810146486B70470146886B7047FC
:101C30000146C86B70470146086C70470A884B889C
:101C40001A438B881A43CB881A430B891A434B8952
:101C50001A438B891A43A0F8442070470021018061
:101C600041808180C180018141818181704731B192
:101C7000B0F8442042F40042A0F8442005E0B0F857
:101C80004420C2F30E02A0F84420704721B182889C
:101C900042F00402828004E082884FF6FB731A400F
:101CA0008280704721B1828842F00102828004E084
:101CB00082884FF6FE731A40828070471AB183897A
:101CC0000B43838102E083898B4383817047818248
:101CD000704702460020138A0B400BB1012000E040
:101CE00000207047CA430282704730B50246002088
:101CF00000230024158A05EA0103958905EA0104F9
:101D000013B10CB1012000E0002030BDCA430282B3
:101D1000704741EA0203A0F8483070471AB183893E
:101D20000B43838102E083898B438381704721B118
:101D3000828842F00802828004E082884FF6F773BE
:101D40001A408280704701894FF6F8721140018174
:101D500070470A46002101894FF68F7319401143DD
:101D60000181704730B504460D4629462046FFF7ED
:101D7000F0FF208940F00700208130BD2DE9F041BF
:101D800004460D4616461F46602D06D13B460122ED
:101D900031462046FFF775FE05E03B4601223146FD
:101DA0002046FFF7A4FE29462046FFF7D2FF2089F0
:101DB00040F007002081BDE8F08130B50C460021DD
:101DC0000189C9B24FF6FF7505EA0325154325437E
:101DD0002943018130BD2DE9F04105460E461746E5
:101DE0009846002443463A4631462846FFF7E5FF29
:101DF0002C894FF6F870044044F007044FF68F70BA
:101E0000044044F070042C81BDE8F081F0B5044634
:101E10000D4616461F463B46324629462046FFF7EA
:101E2000CCFF208940F480402081F0BD82884FF6AD
:101E30008F731A40828082880A43828070470289A9
:101E40004FF6F8731A40028102890A4302817047F3
:101E500002894FF67F731A40028102890A43028188
:101E60007047F0B50C4615461E460021002200239F
:101E70000189028B038C4FF6F877394021434FF6E6
:101E8000FC473A4040F201173A434FF6DD773B40BA
:101E90004FF6FF7707EA06172F433B430181028382
:101EA0000384F0BD21B1828842F08002828004E088
:101EB00082884FF67F731A4082807047A0F85010D6
:101EC0007047000010B50446FA48844208D1012149
:101ED0001020FFF700F900211020FFF7FCF857E071
:101EE000F548844209D101214804FFF7E3F80021B5
:101EF0004FF40030FFF7DEF84AE0F048844209D1A1
:101F000001218804FFF7D6F800214FF48020FFF765
:101F1000D1F83DE0EA48844209D10121C804FFF725
:101F2000C9F800214FF40020FFF7C4F830E0E5487D
:101F3000844209D101210805FFF7BCF800214FF4C4
:101F40008010FFF7B7F823E0DF48844208D1012171
:101F50002020FFF7C0F800212020FFF7BCF817E091
:101F6000DA48844209D101218807FFF7A3F800214C
:101F70004FF08040FFF79EF80AE0D548844207D131
:101F800001214005FFF796F800216005FFF792F860
:101F900010BD2DE9FF4705460E460024A14600BFAF
:101FA000A046B08900B100BF2C8A24F44054F088C8
:101FB00004432C82AC8941F20C608443B08831899F
:101FC0000843718908430443AC81AC8A24F440740B
:101FD000B0890443AC826846FEF7FDFEB5488542F1
:101FE00002D0B948854202D1DDF80C9001E0DDF85D
:101FF0000890A88900F4004040B109EBC90000EB4B
:10200000091031684900B0FBF1F707E009EBC9009E
:1020100000EB091031688900B0FBF1F76420B7FBD1
:10202000F0F004012009642101FB1078A88900F474
:10203000004040B1322000EBC800B0FBF1F000F0EE
:102040000700044308E0322000EB08106421B0FBD5
:10205000F1F000F00F0004432C81BDE8FF874FF43E
:102060001651016000218180C18001810C214181D4
:1020700000218181704710B502460020108A20F4AB
:1020800070600B884C8823438C882343CC8823437F
:102090001843108210BD0021018041808180C180E1
:1020A000704721B1828942F40052828104E0828922
:1020B0004DF6FF731A4082817047028B02F47F4213
:1020C0000283028B0A430283704721B1828942F462
:1020D0000042828103E08289C2F30E02828170474E
:1020E00021B1828A42F40062828204E0828A4FF245
:1020F000FF731A4082827047C1F3080282807047E2
:1021000001468888C0F308007047028A4FF6F073D2
:102110001A400282028A0A430282704721B18289F0
:1021200042F00202828104E082894FF6FD731A4078
:102130008281704782894FF2FF731A4082818289BF
:102140000A4382817047028A4FF6DF731A40028287
:10215000028A0A430282704721B1028A42F4804215
:10216000028204E0028A4BF6FF731A400282704733
:10217000818941F001018181704721B1828A42F059
:102180000802828204E0828A4FF6F7731A40828244
:102190007047028BD2B20283028B42EA0122028391
:1021A000704721B1828A42F02002828204E0828A52
:1021B0004FF6DF731A408282704721B1828A42F063
:1021C0001002828204E0828A4FF6EF731A40828204
:1021D0007047828A4FF6FB731A408282828A0A43D2
:1021E0008282704721B1828A42F00202828204E038
:1021F000828A4FF6FD731A40828270471AB1838A31
:102200000B43838202E0838A8B4383827047F0B55D
:102210000346002400260025002040F66A17B94234
:1022200000D100BF1846C1F3421401F01F06012778
:1022300007FA06F5012C01D10C3004E0022C01D183
:10224000103000E014301AB107682F43076002E035
:102250000768AF430760F0BD02460020B1F5007F7C
:1022600000D100BF13880B400BB1012000E000201B
:10227000704701F40072B2F5007F00D100BFCA437D
:102280000280704770B5024600240023002500201C
:1022900040F66A16B14200D100BFC1F3421501F009
:1022A0001F03012606FA03F3012D13D1968933404B
:1022B00017E00000001001400044004000480040CA
:1022C000004C0040005000400014014000780040E5
:1022D000007C0040022D02D1168A334001E0968A2C
:1022E00033400C12012606FA04F41688344013B168
:1022F0000CB1012000E0002070BD10B500220023C9
:1023000040F66A14A14200D100BF0A120124944091
:10231000A3B2DC43048010BD10B504466FF0040086
:10232000FEF714F9E11704EB5171C1F3C701394A03
:1023300011701046007800EB4001C1EBC0104FF661
:10234000FF7101EAC0003449088010BD0146314ADE
:1023500012784A434FF0E0235A6100229A611A46EC
:10236000126942F001021A6100BF4FF0E0221069C9
:1023700000F001021AB100F48032002AF5D04FF0CB
:10238000E022126922F001024FF0E0231A610022DC
:102390009A6170470146204A12884A434FF0E02371
:1023A0005A6100229A611A46126942F001021A61CA
:1023B00000BF4FF0E022106900F001021AB100F4F2
:1023C0008032002AF5D04FF0E022126922F001029B
:1023D0004FF0E0231A6100229A61704770B50446FD
:1023E0004FF4077094FBF0F0C6B24FF4077094FB03
:1023F000F0F100FB114085B205E04FF40770FFF7E4
:10240000C9FF701EC6B2002EF7D115B12846FFF7DE
:10241000C1FF70BD240000202600002000BF7047CF
:1024200000BF4C4A128802F04002002AF9D0C2B222
:10243000484B9A80704710B588B004460121084681
:10244000FEF79AFD01211020FEF7F0FD0722092179
:102450004148FEF77EFB07220A213F48FEF779FB41
:102460004FF4C060069002208DF81C008DF81D000E
:1024700000208DF81E0001208DF81F0006A93648A7
:10248000FEF7DCFA02940020ADF80C00ADF80E0067
:10249000ADF81000ADF814000C20ADF8120002A940
:1024A0002C48FFF776FD01212A48FFF7FAFD0122AB
:1024B00040F225512748FFF7AAFE25208DF8040099
:1024C00003208DF805008DF8060001208DF8070027
:1024D00001A8FDF7EEFF08B010BD10B540F2255180
:1024E0001C48FFF7CFFE10B31A48FFF709FEC4B22D
:1024F0001A48008800F40040C8B91848008800F461
:10250000804060B10A2C03D000201449088020E0EC
:102510001248008840F400401049088019E00D2C52
:1025200006D10E48008840F480400C49088010E035
:102530000A480088C0F30D0009490C540748008878
:10254000401C0649088008460088C72801DD002095
:10255000088010BD00100140000002402C00002047
:102560003C00002000B58BB001210220FEF704FDE5
:1025700001210220FEF79EFD022200213148FEF7D4
:10258000E8FA022201212F48FEF7E3FA032009901E
:1025900002208DF8280000208DF82A0001208DF8F7
:1025A0002B0003208DF8290009A92648FEF746FADA
:1025B0000020ADF82000ADF81A0044F61F60079027
:1025C0005320ADF8180000208DF8220006A91E48FF
:1025D000FEF7D3FE4FF48070ADF814006020ADF824
:1025E00004000020ADF810000120ADF806004FF403
:1025F0007A70039001A91448FEF7DAFF01A9124886
:10260000FFF73CF808211048FFF7EFF808210E48C3
:10261000FFF7F4F801210C48FFF729FB01210A48D4
:10262000FEF734FF0BB000BD10B504462146064846
:10263000FFF795F810BD10B5044621460248FFF794
:1026400090F810BD000402400004004000B597B0AF
:1026500001210220FEF790FC01218804FEF7D5FC41
:1026600001214805FEF788FC07220A21EF48FEF702
:1026700070FA07220B21ED48FEF76BFA4FF4406029
:10268000159002208DF858008DF8590000208DF823
:102690005A0001208DF85B0015A9E448FEF7CEF939
:1026A0004FF4E13011900020ADF84800ADF84A0039
:1026B000ADF84C00ADF850000C20ADF84E0011A95B
:1026C000DB48FFF766FCDB48FDF75EFF4FF000607C
:1026D0000290D748001D0390D74804900020059031
:1026E0000B200690002007904FF480600890002097
:1026F00009900A904FF480700B9040020C900020DB
:102700000D9003200E9000200F90109002A9C94850
:10271000FDF7DCFF0C208DF8040001208DF8070088
:1027200002208DF805008DF8060001A8FDF7C1FE16
:1027300001221021BF48FEF790F80121BC48FFF7A5
:10274000B0FC0121BB48FDF7FBFF01224021B84846
:10275000FFF754FD01228021B548FFF74FFD17B068
:1027600000BD10B52DED048BB449B248FEF745F815
:1027700000287AD00320B2490870AF480078552865
:1027800074D1AD484078512804D0522870D05328D5
:102790006AD1D8E0A8498978A74AD27841EA0220CC
:1027A00000F0A4FB41EC190B9FEDA60B53EC102B92
:1027B00000F044FA41EC180B9FEDA40B53EC102BE6
:1027C00000F0ACFBA34A03C29B4909799A4A5279AB
:1027D00041EA022000F08AFB41EC190B9FED990BB6
:1027E00053EC102B00F02AFA41EC180B9FED970BDD
:1027F00053EC102B00F092FB964AC2E902018E497D
:1028000089798D4AD27941EA022000F06FFB41ECD0
:10281000190B9FED8C0B53EC102B00F00FFA41ECD1
:10282000180B9FED8A0B53EC102B00F077FB894AB5
:10283000C2E904018049097A7F4A527A41EA0220BA
:1028400000F054FB41EC190B9FED830B53EC102B64
:1028500000F0F4F941EC180B9FED810B53EC102BB9
:1028600000F044F9804A03C2D8E0DCE0D7E0FFE79B
:1028700071498978704AD27841EA022000F036FB2B
:1028800041EC190B9FED6F0B53EC102B00F0D6F9B8
:1028900041EC180B9FED750B53EC102B00F03EFB39
:1028A000744A03C264490979634A527941EA0220B1
:1028B00000F01CFB41EC190B9FED620B53EC102B4D
:1028C00000F0BCF941EC180B9FED680B53EC102B9A
:1028D00000F024FB674AC2E9020157498979564A48
:1028E000D27941EA022000F001FB41EC190B9FED87
:1028F000550B53EC102B00F0A1F941EC180B9FED98
:102900005B0B53EC102B00F009FB5A4AC2E904019F
:102910004949097A484A527A41EA022000F0E6FA27
:1029200041EC190B9FED4C0B53EC102B00F086F98A
:1029300041EC180B9FED4A0B53EC102B00F0D6F82E
:10294000494A03C26AE03C4989783B4AD27841EA65
:10295000022000F0CBFA41EC190B9FED3A0B53EC3F
:10296000102B00F06BF941EC180B9FED430B53EC6F
:10297000102B00F0D3FA424A03C22F4909792E4A9C
:10298000527941EA022000F0B1FA41EC190B9FEDB7
:102990002D0B53EC102B00F051F941EC180B9FED6F
:1029A000360B53EC102B00F0B9FA354AC2E902019C
:1029B00021498979204AD27941EA022000F096FA29
:1029C00041EC190B9FED1F0B53EC102B00F036F967
:1029D00041EC180B9FED280B53EC102B00F09EFAE6
:1029E000274AC2E904011449097A134A527A41EA92
:1029F000022000F07BFA41EC190B9FED170B53EC12
:102A0000102B00F01BF941EC180B9FED150B53EC4C
:102A1000102B00F06BF8144A03C200BF00BF074937
:102A20000448FDF706FFBDEC048B10BD0004024016
:102A30000048004028600240080100200008001003
:102A400038000020000000000000E040000000000E
:102A500000003040180100200000000000407540D8
:102A60000000000000204240300000200000000074
:102A700000409F40300100200000000000806640C0
:102A8000480100207047704770477047704775468F
:102A900000F028F8AE4605006946534620F00700CE
:102AA000854618B020B5FDF7EDFCBDE820404FF09D
:102AB00000064FF000074FF000084FF0000B21F028
:102AC0000701AC46ACE8C009ACE8C009ACE8C009F5
:102AD000ACE8C0098D4670470446AFF3008020463D
:102AE000FDF79BFB004870476001002010B591EA9C
:102AF000030F48BF83F0004300F11683841A71EB83
:102B0000030C05D2121943EB0C03001B61EB0C0103
:102B1000DFF824E14FEA1154A4EB135C1EEA430FE3
:102B200018BF9EEA445F73D023EA0E03DCF1200E47
:102B300021EA045143F4801332D322FA0CFE10EB45
:102B40000E0023FA0CFE41EB0E01CCF1200E03FA2D
:102B50000EFE10EB0E0051F10001B1F5801FCCF11B
:102B6000200E32D201EB045112FA0EF2BDE81040F1
:102B700058BF7047401C38BF5FEA420218BF704719
:102B8000002814BF20F0010041F100014FEA410389
:102B900013F5001F38BF7047A1F1C04100F0B6BA6D
:102BA000012A43EB0302ACF1200CDCF11F0E32BF13
:102BB0004FF0000E23FA0CF310EB030041EB04512D
:102BC000B4EB115FD0D0A1EB045101F5801149089D
:102BD0005FEA300001EB04510ED350F1000038BF22
:102BE00012FA0EFE08D1BDE81040C9E7401C38BFFC
:102BF0005FEA4202CAD1C3E7BDE810404FEA410391
:102C000013F5001F38BF7047A1F1C04100F07EBA34
:102C10009EEA445F08D011EA5E0FBDE8104004BF91
:102C200001F0004100207047BDE8104070B500F091
:102C30001FFA00BF64FBBE3E0000E0FF2DE9C0416B
:102C400030B4DFF8A0C23CEA111418BF3CEA1314F8
:102C500000F0EC8081EA03051CEA111444EAD57403
:102C600018BF1CEA131500F0C780A4EB05044FF051
:102C7000004545EAC12145EAC32341EA505143EAF0
:102C8000525304F17F74994204F500344FEAC02096
:102C90004FEAC22208BF904200F09C804FEA1365C1
:102CA0000FF24016765D4FEA134506FB05F7C7F1B4
:102CB000807706FB07F74FEAD737A7FB0368764212
:102CC000C8F58038A7FB06CE38BFA8F1010807FB7E
:102CD00008E64FF0000EA6FB028CE6FB03CEDCF10B
:102CE000000CCEF1004E38BFAEF1010EA6FB0C5821
:102CF0004FF000074FF00005E6FB0E87A1FB08C66A
:102D0000A0FB07CE16EB0E0645F10005E1FB0765BB
:102D100015F1E04E7EBFA4F580345FEA46066D41B2
:102D200016F1800745F100054FEA17274FEA0666BE
:102D300047EA0567A6F1DE46B6F1805F4FEA152542
:102D40001FD9384624F0010C05EBC471BCF1FE6FAD
:102D500001EB0C1102D8F0BCBDE8008124425CBF3D
:102D600001F5801E9EEAC47F02D4F0BCBDE800815C
:102D7000244238D4F0BCA1F1C041BDE8004100F0CC
:102D8000C5B94FEAD22242EA43524FEAD323A7FB06
:102D900002864FEAD02040EA415007FB03661EEA54
:102DA0000E0F4FEAD12105FB026658BFA6EB005675
:102DB000B6EB00564FEA520E4EEAC37E18EB0E0EEB
:102DC00056EB530EBDD518EB02085E417F1C55F142
:102DD0000005B6E74FF480154FF000074FF00006EE
:102DE0004FF00008ADE7F0BC4FF0000001F1C0412A
:102DF00001F00041BDE8008111EA0C1F0CEA131537
:102E000000D00CE013EA0C1F00F025804FF000000A
:102E1000F0BC81EA030101F00041BDE80081F0BC93
:102E2000BDE8004181EA030100F070B9F0BCBDE8E3
:102E3000004170B500F01CF9097EFC3E00F007B8B7
:102E400081EA03014FF0000001F00041704781EA80
:102E5000030100F05BB9F0BCBDE800414FF0000099
:102E600021497047FFFDFBF9F7F5F4F2F0EEEDEBC9
:102E7000E9E8E6E4E3E1E0DEDDDBDAD8D7D5D4D378
:102E8000D1D0CFCDCCCBCAC8C7C6C5C4C2C1C0BFC4
:102E9000BEBDBCBBBAB9B8B7B6B5B4B3B2B1B0AFCA
:102EA000AEADACABAAA9A8A8A7A6A5A4A3A3A2A1AE
:102EB000A09F9F9E9D9C9C9B9A9999989797969569
:102EC00095949393929191908F8F8E8E8D8C8C8B05
:102ED0008B8A89898888878786858584848383828D
:102EE000828181800000FF070000F87F10F000421F
:102EF00048BF4042B0FA80F310FA03F10AD0C3F1A0
:102F00001D0303F580634FEA415002EB035202EBCD
:102F1000D12170474FF0000070470000DFF848C132
:102F200070B51CEA111E1EBF1CEA13159EEA0C0F99
:102F300095EA0C0F00F06F8081EA030423EA4C133A
:102F40004EEAD47E21EA4C1141F4801143F48013FF
:102F5000AE44A1FB024CA0FB0365AEF17F7E3619A7
:102F600055EB0C05A1FB034C4CF10003A0FB021C2C
:102F700016EB0C06654153F10003094218BF46F0F9
:102F8000010613F4007F0BD14FEA03314FEA0530FD
:102F9000340341EA155140EA16506FF003020AE08B
:102FA0004FEAC3214FEAC520F40241EA555140EAF5
:102FB00056506FF0020202EB2E4201EB025585EAF9
:102FC000CE710AD05FEA440C18BF24F0004450F1DF
:102FD000000041F1000120EAD47040F2FE7C62451D
:102FE00000D270BDA84214BF4FF080444FF040445F
:102FF000002E08BF0024BEF1806FA8BFA1F1C04120
:10300000BDE8704080F282804FF0000001F1C041C5
:1030100001F0004170479EEA0C0F0CEA131518BF2F
:1030200095EA0C0F06D04FF0000081EA030E0EF077
:10303000004170BD00F01CF88900013E00F007B8A7
:1030400000F009B84FEA430C5FEA5C5C08D081EA03
:10305000030100F05BB84FEA410C5FEA5C5CF6D11B
:103060004FF00000014970470000FF070000F87FA3
:103070000EF1020E2EF0030E5EF8046B364205D4FC
:10308000012A43EB030515F5001F12D8012841EB77
:10309000010C1CF5001F0CD80ED14FEAD17C15F5A0
:1030A000001F0CEB4C0C0CF1020C08BF4CEBD37C5A
:1030B00004E04FF0080C01E04FEAD37C0CEB4C0528
:1030C00026FA05F606F00706B6F1040C06D20EEB5A
:1030D000860CBDE870404CF0010C6047DFE80CF056
:1030E000090B02024FF000414FF00000A1F5002152
:1030F00070BD19461046012851EB010418BFD4F5E4
:10310000001484BF002001F0004170BD0808A0F544
:1031100000114FEA3101704710B591EA030F48BF23
:1031200083F000433FF5EAAC841A71EB030C07D23D
:1031300012198CF0004C43EB0C03001B61EB0C01EB
:10314000DFF8A4E14FEA1154A4EB135C1EEA430F2D
:1031500018BF9EEA445F00F0B08023EA6E0352423B
:1031600021EA0451C3EB6E0338BF5B1EDCF1200E75
:1031700025D322FA0CFE10EB0E0043FA0CFE41EBB5
:103180000E01CCF1200E03FA0EFE10EB0E0051F1F1
:103190000001CCF1200E29D412FA0EF201EB0451F9
:1031A000BDE8104058BF7047401C1CBFB2F1004F33
:1031B000704700280CBF491C20F00100704712EB3B
:1031C000020E43EB030218BF4FF0010E4EEA42021B
:1031D000ACF1200CDCF11E0E54D943FA0CFE10EBBE
:1031E0000E0051F1FF31CCF11E0ED5D50EF1010EBE
:1031F00012FA0EFE404141EB010101EB445C5FEA33
:103200005C5C10D910EBDE7001EB045138BFBEF1ED
:10321000004FBDE8104018BF704700280CBF491C84
:1032200020F00100704730D24FEAD42C11F5001184
:1032300024F400641BD0B1FA81F20B3AA41AA41E44
:10324000D2F12003914030FA03F31943904001EB8F
:10325000CC71002C01EB0451BDE81040A8BF7047B1
:1032600001F1C0414FF0000001F000417047B0FA99
:1032700080F310FA03F100D110BDE41A173C4805A1
:10328000C90AE4E701EB045110BD491001EB0451F8
:10329000BDE810404FEA300002E04FF000017047F7
:1032A0004A0008BF0042F8D0B2F5001F28BF70479F
:1032B00001F000414FF0000070479EEA445F07D0E4
:1032C00011EA5E0FBDE8104004BF002100207047E6
:1032D000BDE8104070B5FFF7CBFE00BF40DFF63E03
:1032E00083F00041104670470000E0FF4FF040704F
:1032F000E1EE100A704700001833000800000020BB
:103300003C000000C4010008543300083C000020C9
:1033100084070000E0010008007A030A00000000B2
:103320000000000001020304060708090000000075
:10333000010203040102030406070809000000005B
:10334000000000000000000000000000000000007D
:043350000700000072
:040000050800018965
:00000001FF
